:020000041000EA
:1000000000B5324B212058609868022188439860DF
:10001000D860186158612E4B002199600221596106
:100020000121F02299502B49196001219960352056
:1000300000F044F80222904214D00621196600F024
:1000400034F8196E01211966002018661A6600F04E
:100050002CF8196E196E196E052000F02FF8012189
:100060000842F9D1002199601B49196000215960AB
:100070001A491B48016001219960EB211966A021F2
:10008000196600F012F800219960164914480160C1
:100090000121996001BC002800D000471248134993
:1000A000086003C880F30888084703B5996A0420EC
:1000B0000142FBD001200142F8D103BD02B5186610
:1000C0001866FFF7F2FF186E186E02BD00000240BE
:1000D000000000180000070000035F00212200005C
:1000E000F4000018222000A00001001008ED00E03C
:1000F00000000000000000000000000074B24E7A12
:1001000000200420F7010010C3010010C5010010F9
:10011000C1010010C1010010C1010010C101001097
:10012000C1010010C1010010C1010010C701001081
:10013000C1010010C1010010C9010010CB01001065
:10014000CD010010CD010010CD010010CD01001037
:10015000CD010010CD010010CD010010CD01001027
:10016000CD010010CD010010CD010010CD01001017
:10017000CD010010CD010010CD010010CD01001007
:10018000CD010010CD010010CD010010CD010010F7
:10019000CD010010CD010010CD010010CD010010E7
:1001A000CD010010CD010010CD010010CD010010D7
:1001B000CD010010CD010010CD010010CD010010C7
:1001C00000BE00BE00BE00BE00BE00BEEFF3058054
:1001D000103800BEF2EB8871D8020010F402001053
:1001E0003402001090A31AE700202249086006C8D4
:1001F00081F30888104720480068002835D10DA4F5
:100200000ECC002902D000F012F8F9E71B491C4A75
:10021000002000E001C19142FCD11A4988471A49E7
:1002200088471A49884700BEFDE701C901C29A42C2
:10023000FBD37047F4020010C0000020643C002093
:10024000983E0010703C0020E04F00200852001043
:1002500000000420000004200852001000100420B8
:1002600000100420000000007047094800F014F856
:100270000047000008ED00E0000000D0E04F002043
:10028000B854002095200020690500205D20002042
:10029000575600000000000001B40248844601BC2B
:1002A000604700BF4D30002006005250ABB3605392
:1002B000354D002006005250861C0302574D002089
:1002C000060052505422A29D624D0020050052505B
:1002D000DE65F46808520010CC020010C002001065
:1002E000B4020010FB4C0020A8020010074D0020B3
:1002F000134D0020F8B5C04610B5064C2378002BEE
:1003000007D1054B002B02D0044800E000BF0123B9
:10031000237010BDE050002000000000643C00206D
:10032000044B10B5002B03D00349044800E000BF84
:1003300010BDC04600000000E4500020643C0020D6
:10034000004870475049434F43688020C0008342B3
:1003500004D8002008600248136070470148FCE799
:100360004F4B4F4B455252210368406803430320D3
:10037000034003D102480B60136070470148FCE75B
:100380004F4B4F4B4552522110B5FFF7EDFF10BDBB
:1003900030B503680A4CA34210D94068094C1D18B7
:1003A000A5420BD80343DBB2002B07D18024E40025
:1003B000A04203D808600448136030BD0348FCE73E
:1003C000FF6F0010FFFFFF104F4B4F4B4552522164
:1003D000074B08481360084B536080235B01936010
:1003E00080235B00D3608023DB0013617047C0462D
:1003F000007000104F4B4F4B0090FF00002302484D
:100400000B6013607047C0464F4B4F4B80210A4B27
:100410000268C90510B51960084B002A09D0084ABE
:100420001A62084A5A6200221100100001F0FAFE16
:10043000FEE71A62F6E7C04600B0054000800540BE
:100440000DF005B1F20FFA4E03680B4A10B5934256
:100450000FD94168094A581890420AD81A000A432D
:10046000120506D1F0221206981803F0D5FD0448B3
:1004700010BD0448FCE7C046FF5F0010FFFFFF10FF
:100480004F4B4F4B4552522110B506C8180003F090
:100490003DFB014810BDC0464F4B4F4B102210B5DD
:1004A000054B4118884200D110BD9C691442FCD113
:1004B0001C6804700130F5E700400340202210B5AD
:1004C000054B4118884200D110BD9C691442FCD1F3
:1004D000047801301C60F5E70040034010B50C289B
:1004E00005D9054B054AC321054801F0D5FE054B4A
:1004F000C002184310BDC0462C400020343F0020ED
:100500004940002019801F00F0B5060085B0012089
:10051000019103F03BFC0400FFF7E0FF2C2398431C
:10052000204BA0220343009301218723D205DB0047
:100530004942D1501C4BA101C818802380279B0140
:1005400003433F041F601E27184B89181B689C46F5
:1005500063001F4021233B4367467B40DB05144F6C
:10056000DB0D3B60134BD758BC4680276546FF0028
:100570002F43019DD750AD080E6003AE4E608D60D5
:10058000009DCD6080256D0401682940FCD1872045
:10059000C00015582000D15003F0F0FBE84305B02F
:1005A000F0BDC04618008000100000503404005018
:1005B000341400503404000070B50568040041682C
:1005C0002800FFF7A1FFA268030000209A420DD186
:1005D000074B2A689A4209D96A6823689A4205D368
:1005E00061685B189A4201D80130104070BDC04666
:1005F000FFFFFF1F10B50400C2B0F422002105A8C0
:1006000003F07EFAA16823680191049103216268D6
:1006100002930392DBB20A40134319D102A8FFF7F9
:10062000CBFF002814D08021C0204901C00103F075
:10063000F3FC8022C020520002A9C00103F040FD5B
:1006400080220649520002A803F0C8FB002802D00D
:10065000034842B010BD0348FBE7C04600600010ED
:10066000455252214F4B4F4BF0231B0670B530C8FB
:100670001600E0182A0003F023FD29002000FFF7F0
:1006800043FF3060004870BD4F4B4F4B10B5416881
:1006900000681400FFF738FF2060014810BDC04615
:1006A0004F4B4F4BF0B5036885B0456801201600ED
:1006B000009303F06BFB0400FFF710FF2C2398431B
:1006C0001D4BA0210343019387230022C905DB00B2
:1006D000CA501A4BA201D018802380279B010343E4
:1006E0003F041F601E27164B52181B68AD089C461E
:1006F00063001F40E223FF333B4367467B40DB053B
:10070000104FDB0D3B60009B136003AB5360019BFC
:100710009560D36080220D00520403681340FCD121
:10072000094A2000AB5003F029FB8723DB00EB587C
:100730000648336005B0F0BD18008000100000507E
:100740003404005034140050340400004F4B4F4B1D
:1007500001210C4A13688B43136001230A4A5B4250
:10076000D367C022094952008B50094B094A0A49F4
:100770001A6003685A688B601B6883F30888104707
:10078000FEE7C04610E000E004E100E000E100E028
:1007900000E00040BFEDFBFF00ED00E0F0B58DB0E4
:1007A00000AF182000F054F900220121182000F0B9
:1007B00039F9D024802324065B04A3620A2000F0C8
:1007C000E5FF774A7749106A0023884204D1536ACB
:1007D000754A9B185A4253416268D2011FD5002BBB
:1007E0001DD1724C2000FFF7E7FE002817D0012032
:1007F0006F4923680A6882430A6001226D495242A8
:10080000CA67C0216C48490042506C4A6C4911606B
:100810006C495A688B601B6883F308881047E12194
:10082000694C4902200001F0FDFA0221002000F08D
:10083000E3F80221012000F0DFF8C022236B12024E
:100840001340624A62481360624B19219D446B4613
:10085000BB60FFF733FE00200528FDD803F0B2FA95
:10086000032830526D9200245B4B7B617B60260035
:100870000823F918CB189D1901212800FFF70EFE57
:1008800008220C23BA18D3189B5D2A7800269A42B6
:100890000CD10134042CEAD13B697A6893420DD023
:1008A0004E4B4F4A4F49504801F0F6FC3400DFE709
:1008B0000823FA180421D018FFF7F0FD0220CDE735
:1008C000002214203969494C030053431B191D6849
:1008D000A94211D1BA68FB60101D7A605A689B6802
:1008E00091009B004218C318B8613862FA617B62BC
:1008F000FFF7D4FD0320B1E701320A2AE4D13C4BD3
:100900007B6110E0FB68DB68002B0ED008202422FE
:1009100039188A18202138184118B8699847344B7B
:100920007861984203D1052098E7BB62FB62F869C1
:10093000B96AFFF7B3FD042090E7FC682569002D34
:100940001DD07B6A3A6AF969B869A847284B786173
:100950009842E8D0A468FB6A0134A400E418BB689C
:1009600008217B600C237918C9180422786803F0E9
:10097000CDF8B8682100FFF7A1FD01206EE71D4BFF
:100980007B61E7E708210C237918C9180422B868AD
:1009900003F0BCF8B8680421FFF790FD00205DE784
:1009A000008005400DF005B10EF005B100600010AB
:1009B00010E000E004E100E000E100E000E00040C1
:1009C000BFEDFBFF00ED00E000400340305003406E
:1009D0009C400020E8FBFFFF53594E43B6400020E7
:1009E000503F00204B020000CE400020643F00201A
:1009F000455252214F4B4F4B084B8200D218402397
:100A000010B51468C0006340C024234080246401F2
:100A100022431360024BC018416010BD04C0014066
:100A200000400140094B8000C0184B1E9941531EE5
:100A30009A41C900036892001143594080230C2257
:100A40005B011140184301607047C04604C001407B
:100A50000123D022834010B51206936205219361D1
:100A6000FFF7CAFF10BD0000024B18688007C00FD7
:100A70007047C04600C00640EFF3108072B6034ACC
:100A80001368002BFCD0BFF35F8F70472C0100D0A0
:100A9000BFF35F8F0022024B1A6080F3108870470B
:100AA0002C0100D0CB080722C35C012011408840F4
:100AB0001840431E9841C0B27047F8B505000C00BD
:100AC0001700FFF7D9FF210006002800FFF7EAFF13
:100AD000002803D02100380001F070FCE308ED1875
:100AE00007231C40063BA3402A78300013432B7099
:100AF000FFF7CEFFF8BDF7B50500019114001F0008
:100B0000FFF7BAFF0600BC4202D9012464420EE09E
:100B100021002800FFF7C6FF002813D1E3080722B1
:100B2000ED180123224093402A7813432B703000A4
:100B3000FFF7AEFF002C07DA019B002B04D00898CA
:100B400001F03CFC0134DEE72000FEBD70B504007E
:100B50000D00FFF791FF290006002000FFF7A2FF1C
:100B6000002805D1094B0A4A33210A4801F094FBB9
:100B7000EB08E418072301221D40AA402378300027
:100B800093432370FFF784FF70BDC04640410020AF
:100B9000314100205F4100200021044B044ABFF393
:100BA0005F8F02C39342FAD17047C046000100D064
:100BB000800100D0044A1078431CDBB2172B01D807
:100BC000137070471023FBE7244F0020074B1030B1
:100BD0009B688000C150BFF35F8FBFF35F8F002120
:100BE000034B196082F310887047C04600ED00E0A7
:100BF000240100D0038810B5DA0A1C2A05D0054B61
:100C0000054AB121054801F047FB5B051B1504337C
:100C1000C01810BD04430020E24100201943002009
:100C20000A4B091A0A4A081FC91810B5914201D87F
:100C3000C30705D5074B084AA321084801F02CFB40
:100C4000E0230005400D1B02184310BDFC07000007
:100C5000FE0F0000D4420020BF41002019430020B5
:100C600001228240034B1B681340581E8341D8B2B7
:100C70007047C04600E100E0002904D0034B186033
:100C8000034B18607047034BFBE7C04680E200E06F
:100C900000E100E080E100E00123834010B518008E
:100CA000FFF7EAFF10BD0000024B10309B68800088
:100CB000C058704700ED00E070B504000D00EFF380
:100CC000108672B60C4A1368002BFCD0BFF35F8FFE
:100CD0002000FFF7E9FF094B984207D0A84205D052
:100CE000074B084A8621084801F0D6FA320029004D
:100CF0002000FFF76BFF70BD240100D0CD01001074
:100D00009E420020A541002019430020F0B585B087
:100D100001900F00EFF3108372B64C4A02931368F0
:100D2000002BFCD0BFF35F8F494B019C9B681034B4
:100D3000A200D658474B9E4265D0BE4200D17FE00C
:100D4000454BF31A2F2B5ED80198FFF789FF00213E
:100D500003900198FFF7A0FFBFF35F8FEFF30582C9
:100D6000002A06D0944204D036213C4B3C4AFF3145
:100D70005DE0012334000C219C438C46002336485F
:100D80000625A1686557B94214D1002D19DA002A49
:100D900044D1002B40D0FF329A71324A9A80324AB5
:100DA0002D491378A371314B641A644163431B0DC1
:100DB000137024E0002D45DB63465D432300441996
:100DC000DEE70C206843244F3B189A68A260DA796A
:100DD000E2719B795BB2A371002B1BDB0430C0195D
:100DE000FFF708FF231D01001800FFF719FF0C2370
:100DF0006B43FF181C4BA0801A781D70BA710399C1
:100E00000198FFF749FF029A31000198FFF7DEFED3
:100E100005B0F0BD1648EAE70E4EC0E7154B1B1BA8
:100E2000083B5A081B0B05D0AB21134B134A14483F
:100E300001F032FA134BA380134B1343E380DEE738
:100E40001E00E0E7114B064A6A2190E7240100D01A
:100E500000ED00E0CD010010284F00205642002098
:100E6000F141002001BDFFFFAC520020AAAA000002
:100E700001BD0000624F002088420020CB410020CD
:100E80001943002000F0FFFF00F8FFFF9842002008
:100E9000F8B50125294A0543AB1A2F2B04D9C721E0
:100EA000274B284A490007E0EFF30581002906D1C6
:100EB0009221254B234AFF31244801F0EDF9EFF34D
:100EC000108772B6224B9C461C68002CFCD0BFF3E6
:100ED0005F8F204B0400A41A644163431B0D1E4C1A
:100EE0008900A4685BB2645826000024AE420FD18A
:100EF000194A1A4C92685450194A1178137081712A
:100F0000BFF35F8F00236246136087F31088F8BD3C
:100F100006215156994208D10C225443074A14190C
:100F2000FF22A2710F4AA280E6E701340C32042CA2
:100F3000EED10D4B034AD121B4E7C046284F002023
:100F40001E42002004420020464200201943002097
:100F5000240100D0AAAA000000ED00E0CD0100109D
:100F6000AC52002001BDFFFF50420020054B064A55
:100F70001360064A136053609360D360136153613A
:100F8000936170478080808000E400E004E400E02A
:100F9000024BC918890001607047C0464000003408
:100FA00010B50400FFF706FE01002000FFF7F0FF78
:100FB000FF232371BFF35F8F10BD10B50400FFF74F
:100FC000F9FD01002000FFF7E3FFFF23A380BFF33B
:100FD0005F8F10BD30B5084D01226C6A00238C4232
:100FE00006D3AD6A1300854202D20B1B591E8B41FA
:100FF0001340180030BDC046004005400A4B186839
:10100000EFF3108272B601680029FCD0BFF35F8F46
:101010001B68BFF35F8F0021196082F3108840BF07
:10102000002000217047C0465452002070B50C00CB
:101030000500080000F022FD0949200000F064FCD2
:10104000FFF7B8FD074B2C75C018D0231B061B6893
:1010500080006B75044BA4006860E55070BDC0460D
:1010600095100020400000344052002010B50029A7
:1010700003D003681B7B8B4205D2064B064A3C21FA
:10108000064801F009F9064B8068C91809014018A3
:1010900010BDC046C445002049440020E64500205C
:1010A000FFFFFF0F70B516000500FFF7DFFF3100EF
:1010B00004002800FFF7DAFF6268416801239142CB
:1010C00005D803D101682268914200D80023D8B224
:1010D00070BD000010B5034B034A3F21034801F0E7
:1010E000DBF8C046FA4600200944002015470020DE
:1010F00010B5040000F0CCFB002901DAFFF7EAFF8D
:1011000020606160200010BD10B5002902D0037B73
:101110008B4205D2054B064A6821064801F0BCF80F
:1011200003234B430068033BC01810BD4246002018
:101130001E4400205E46002010B5427B01238A42F7
:1011400004D0FFF7E1FF8378581E8341180010BDDB
:10115000F8B507000D001400FFF7D6FF0600002DBC
:1011600005D16F210E4B0F4A0F4801F095F8002C66
:1011700003D10E4B0B4A7021F6E7A54203D10C4B6D
:10118000084A7121F0E721003800FFF7BDFF8570A4
:101190003378002B01D13470F8BD4370FBE7C046B3
:1011A000224600202A4400205E46002039460020C6
:1011B0002C460020F0B585B0009201930CAB1C7852
:1011C0000DAB1B78070003930568002C0BD02100A2
:1011D0002800FFF7B1FF002815D02C4B2C4A6721BF
:1011E0002C4801F059F8AC7B002C44D02100280099
:1011F000FFF78AFF4378AB73002B00D1EB7300231A
:1012000083704370037021003800FFF72FFF009AAE
:10121000019B026043600A9B210083600B9BC360BB
:101220002800FFF771FF00238370437003706E7B0B
:101230009E4228D022003100A8686B689847002899
:101240001CD0220031002800FFF782FF6E73A642F7
:1012500011D1009A019B387D00F0A0FB051E06D03D
:10126000039B002B03D12100386800F031FD0E9B59
:10127000002B00D01D70200005B0F0BD3200210011
:101280002800FFF765FF2600E0E7C046C3440020C2
:101290007C440020E645002010B5002903D00368F7
:1012A0001B7B8B4205D2054B054A4121054800F0C6
:1012B000F3FFC0680139401810BDC046C445002086
:1012C00053440020E64500200023F0B593B00A9374
:1012D000774B8200D6580E9010A8FFF709FF109B9D
:1012E000119C726808930994EFF3108572B6136825
:1012F000002BFCD0BFF35F8F33685F7B0793002F19
:101300006BD039003000FFF7B1FE0268436804007B
:1013100008980999121A8B41002B52DC01D1002A3E
:101320004FD10021079800F0C9FCB84205D08E21AA
:10133000604B614A614800F0AFFF226863680C921D
:101340000D93A3680793E3680893079B002B03D1D1
:101350005B4B594A9221EDE739003000FFF79CFFC3
:10136000037800200A931B023B4333617368BFF389
:101370005F8F00221A6085F31088079B934200D18B
:1013800090E00A9B08991B023B430B931800079BB4
:101390009847726804000D00EFF3108372B60F9344
:1013A0001368002BFCD0BFF35F8F002D3CDA33694C
:1013B000002B4ED00B9A934217D0424B3E4AA121AC
:1013C000B8E7226863680E9800F0E8FA002400236A
:1013D0000C930D9408930793C8E700230024089703
:1013E0000C930D9407973800C0E70C9A0D9B121BC5
:1013F000AB41002B02DA0122334B5242002104910F
:1014000001310391089902970191079930000091E9
:10141000FFF7D0FE002372683361BFF35F8F136064
:101420000F9B83F3108857E723002B4311D03369B8
:10143000002B0ED00B9A934203D0224B1E4AA421BC
:1014400078E710A8FFF754FE109A119B12196B4110
:10145000CFE73468002F05D039002000FFF76CFE7D
:10146000002804D0F621194B194A1A4863E7E57B96
:10147000002D04D029002000FFF746FE4770A37B13
:10148000002B06D1002D03D0134B114AFB21ECE7B2
:10149000A773E77339003000FFF7FEFE03780133CE
:1014A0000370B7E7002800D016E713B0F0BDC046C0
:1014B00040520020EB44002091440020E6450020EB
:1014C000014500200A450020FFFFFF7F4645002020
:1014D0003C4400205E4600206845002010B50B4CBF
:1014E0006368002B0CD110212300094A206800F00A
:1014F00063FB032000F0C0F903212000FFF796FDF5
:101500000A210448FFF744FD10BDC046704F00207B
:10151000710E002054520020054810B54368002B7E
:1015200005D1044B044A5E21044800F0B5FE10BD0D
:10153000704F0020A345002065440020E6450020B0
:10154000F0B58FB0079327230024050016A909786A
:10155000069204AA9B1809911C706A68EFF3108721
:1015600072B61368002BFCD0BFF35F8F272304AA49
:101570009B180493159B03940193149B029400936E
:101580002800069A079BFFF715FE060000208642FA
:1015900004D031002800FFF77FFE00786B68BFF3AE
:1015A0005F8F1C6087F31088002E23D0272304AAA6
:1015B0009B181B78002B20D1000230430FB0F0BDE8
:1015C00006000F1E0EDA069A079B921BBB4106927D
:1015D0000793079B002BC0DA01220E4B5242069262
:1015E0000793BAE70AA8FFF783FD0A9A0B9B9219A3
:1015F0007B41ECE701204042E0E7099B002B06D04D
:10160000149B15990020984703000B43D8D1002064
:10161000D4E7C046FFFFFF7FF7B505000C1E3BD0A7
:101620004268EFF3108772B61368002BFCD0BFF34B
:101630005F8F2B68E6B2180031000193FFF77CFD45
:101640002B6900281DD09C4206D12C21134B144A33
:10165000FF31144800F020FE31002800FFF71CFE87
:10166000240A0378E4B20020A3420DD1310001988E
:1016700000F02EFB002807D199210B4B084A4900A6
:10168000E7E79C4200D128616B68BFF35F8F0022BF
:101690001A6087F31088FEBD0800FCE77C45002037
:1016A000AB440020E6450020A0450020F0B5EFF354
:1016B000058387B006000F00002B02D0264800F0FB
:1016C0007DFE06246442E517A4197D418D4206D8AB
:1016D00001D1844203D8002D03DAFFF7FBFC00247C
:1016E000002504A8FFF704FD0498059922002B00AB
:1016F000121A8B41002B08DC01D1002A05D13000E1
:10170000390000F0D1F807B0F0BDFFF705FF002366
:1017100002930193114B220000932B00FFF710FF5F
:101720000028ECDB20002900FFF754FC0028E6D15C
:101730000B4B1868EFF3108272B601680029FCD0D9
:10174000BFF35F8F1B68BFF35F8F0021196082F3C7
:10175000108820BFE6E7C046AD460020C90D002036
:101760005452002037B50D0004006846FFF7C0FC56
:101770000098019900196941002902DA0120024903
:101780004042FFF793FF37BDFFFFFF7FFA2210B5FE
:1017900092000023002102F04BF9FFF7E3FF10BD98
:1017A0007FB5EFF3058604000D00002E05D0200064
:1017B0002900FFF70FFC04B070BDFFF7ADFE084B2A
:1017C00002960196009322002B00FFF7B9FE061E39
:1017D000EDDD20BFFFF7A0FE3100FFF71DFFE6E7BC
:1017E000C90D0020F7B5EFF30583180001931038F9
:1017F000EFF3108772B6194B1A68002AFCD0BFF3BA
:101800005F8F012631008140154B164D69631960C9
:10181000154B1B781A00C24094466446002234429D
:101820000AD0124E6C6A8500AE59B4420FD3104AEA
:101830008B430D49AA580B70BFF35F8F00230749F4
:101840000B6087F310889A4200D09047F7BD019B48
:1018500008499B005B1819681960EDE7280100D062
:101860003C70054000400540AD5200205852002019
:10187000FC500020D03F054010B50100024A03484B
:10188000FFF71BF910BDC0468E4700206B520020A9
:10189000044B596A986A5A6A914200D17047110004
:1018A000F8E7C04600400540054B5A6A8A42FCD31F
:1018B0008A4202D19A6A824200D370475A6AF7E795
:1018C0000040054070B504000D00FFF7E1FF020085
:1018D0000B0020002900801859418B4204D801D107
:1018E000824201D8002905DA044B054A3F21054808
:1018F00000F0D2FCFFF7D8FF70BDC046FA460020CA
:101900005F47002015470020F7B504000D00EFF3F6
:10191000108772B61C4B1A68002AFCD0BFF35F8F89
:10192000A3001A4E0193002D1BD02000FFF7BCF935
:10193000B0420BD031002000FFF7BEF9012120009A
:10194000FFF7AAF90123A340114A1360114B019A32
:101950009D50BFF35F8F00230B4A136087F31088FD
:10196000F7BD0C4BA2009D500122A2400A49200065
:101970000B7893430B703100FFF7C8F92900200062
:10198000FFF78AF9E5E7C046280100D0B11500202D
:1019900038600540FC500020AD520020F0B587B003
:1019A000170005000393FFF773FF039E05978E4210
:1019B00002D850D187424ED9EFF3108372B6049308
:1019C000264B1A68002AFCD0BFF35F8F0124AC407D
:1019D000234B24491B78039801932343DBB20293E2
:1019E000029A1F4B1A70204B2A1D92005C63D7503D
:1019F000AA0050501A6A1F00224213D11B6C2342C6
:101A00000AD00020BFF35F8F0023144A1360049BA9
:101A100083F3108807B0F0BD144B154AC521154853
:101A200000F03AFCFFF734FF8E42EAD802D1059B62
:101A30008342E6D8029B019A01209342E2D01F2301
:101A400002001D40AA400C4B3C627C631A60044BB0
:101A5000019A1A70D6E70120DCE7C046280100D0C1
:101A6000AD5200205852002000400540B0470020F1
:101A700074470020D147002080E200E010B5EFF36A
:101A8000108472B60A490B68002BFCD0BFF35F8F3D
:101A900001238340074A0848136202789A43027080
:101AA000BFF35F8F00230B6084F3108810BDC04626
:101AB000280100D000400540AD52002010B500299B
:101AC00002D0037B8B4205D2054B064A68210648AB
:101AD00000F0E2FB03234B430068033BC01810BD3A
:101AE00042460020174800205E460020F8B5070057
:101AF0000D001400FFF7E2FF0600002D05D16F2155
:101B00000E4B0F4A0F4800F0C7FB002C03D10E4BC1
:101B10000B4A7021F6E7A54203D10C4B084A71210C
:101B2000F0E721003800FFF7C9FF85703378002BFC
:101B300001D13470F8BD4370FBE7C0462246002057
:101B4000234800205E460020394600202C46002015
:101B500070B506000C001500002912D0002A09D02B
:101B6000806873689847002806D02A00210030005A
:101B7000FFF7BCFF200070BD220029003000FFF7F6
:101B8000B5FF2C00F6E770B5002301240500067BA5
:101B900043738473C673A64206D831002800FFF74A
:101BA0008DFF0023437070BD21002800FFF786FFE2
:101BB0000134E4B24470EEE710B501734260836013
:101BC000FFF7E1FF10BDF7B505000C1E21D0FFF7B0
:101BD00075FF4678002E1CD031002800FFF76EFFFD
:101BE000002743782100477028000193FFF766FF24
:101BF0003200210047702800FFF7AAFF0199040076
:101C00002800FFF7E0FF210002002800FFF7A0FFF7
:101C100004002000FEBD0000F8B504000D00170010
:101C2000002905D138211F4B1F4A204800F034FB02
:101C3000FFF744FF4378002B03D01D4B1A4A3A218B
:101C4000F3E78378002B03D01A4B174A3B21ECE7CC
:101C500001782000FFF7B7FF0600002F12D0E77BC6
:101C6000002F04D039002000FFF728FF4570A37B28
:101C7000002B06D1002F03D00F4B0B4A4221D4E793
:101C8000A573E573002E05D031002000FFF716FF85
:101C90000023837029002000FFF710FF002343700A
:101CA0003000F8BD76480020354800207E480020EE
:101CB000BB480020E04800206845002070B5457B07
:101CC0000A0029000400FFF7A7FF6073280070BD19
:101CD00070B504000D1E3CD0437B8B4204D1012122
:101CE000FFF7ECFF012070BDFFF7E8FE06008178EA
:101CF00000208142F7D02000FFF7E0FE0178A942E2
:101D000011D173780370002301222900B37073701E
:101D10002000FFF781FF617B0200814214D10E4B4E
:101D20000E4A71210DE02000FFF7C8FE4178A9425C
:101D300002D173784370E6E70029F4D1084B074AD3
:101D40006B31084800F0A8FA2000FFF701FF60732C
:101D5000C8E70800C7E7C0466048002048480020A0
:101D6000504200207E480020F7B5076B04000E00AB
:101D70000192FB0718D50200C02330329B011343A8
:101D8000104A1A60456A836AAD010620ED1800F01A
:101D900083F90D4901F0BEFAAD020100280001F0FF
:101DA000B9FA0021FFF78EFDE36A22005E40019B35
:101DB0002C3233401E0080235B0113431E602763D7
:101DC000F7BDC046010300004E0E000070B50600CE
:101DD00006200C0000F060F92100C00001F09AFA22
:101DE0000124C50907D00D4B9D4214D87F2318400C
:101DF00000192C004508002274621100B562300001
:101E0000FFF7B2FF062000F047F9A1014919800051
:101E100001F080FA70BD0025014CECE7FEFF0000E8
:101E2000FFFF000070B5040006200D0000F034F93B
:101E3000061E2BD0184B9C422AD08023DB03174A66
:101E400017491360174A136018008A689043FBD142
:101E5000154B8021E3185A425341144A5B00490054
:101E6000995220002900FFF7B1FF6E220600602181
:101E70002000FFF779FF220080232C329B011343BF
:101E800010221A600A4B23630323A364300070BD41
:101E900080231B04D3E7C0460080034000E00040DD
:101EA00000C0004000F000400080FCBFAE520020A7
:101EB00001030000F0B585B003920A9A05000F00F7
:101EC000934205D2324B334A3321334800F0E4F9D0
:101ED0000C241A0E1B02029201930A9A0023019805
:101EE000029901F055FA6C432C4B0600E418636824
:101EF000834200D260602B1FDBB20093C023009AA4
:101F00009B012343012A31D8012F2FD103221A60CC
:101F10003B00A2681A42FCD0039B22685B0153403D
:101F2000E02213408022520122431360009B012BC8
:101F300009D8032123687B400B4013600123BB4079
:101F4000A2681342FCD0802380229B01234312010C
:101F50001A600198666032000023029901F018FAB5
:101F60000F4BAD00E850012005B0F0BD80221201FA
:101F70001A600B4BAA00D1580029CDD0586901F046
:101F8000C9F9431C032058430338FDD2C4E7C046B7
:101F90001449002004490020254900200080004009
:101FA0000C52002073B50C2000F0F8F8FEF75CFD31
:101FB00000280AD000232C4A2C489900013388506D
:101FC0000A2BFAD12A4B536273BD2A4CA06700F04A
:101FD00049F90122284B1A60636C012BFCD10322C2
:101FE000264B1A60A66B012EFCD102250524009514
:101FF00031000623224A234800F054F800942300BD
:102000003100214A214800F04DF8214B2900214D93
:10201000009300220420FFF74DFF2B0031000095B4
:1020200000222000FFF746FF0022104C1100230081
:1020300000940720FFF73EFF0022230011000094C8
:102040000820FFF737FF0022094B110000930920F9
:102050002300FFF72FFF002200952B001100062020
:10206000FFF728FFB0E7C0460C520020006CDC02EE
:102070001BB70000008000403CB0004030B0004082
:10208000002F685900800240008C864700C0024043
:10209000001BB70040597307014B8000C0587047C0
:1020A0000C520020F8B51700040030480E001D0047
:1020B00001F030F92E4B0100FA182E4B9A4205D947
:1020C00011212D4B2D4A2E4800F0E6F8380001F082
:1020D00021F902009823103A5B009A4203D9294B58
:1020E000264A1921EFE76B1E062B03D8069B013BFE
:1020F000062B03D9244B214A1C21E4E7069A2B0422
:1021000015031D432368002B0FDA3F222368134079
:10211000B3420AD1A3681B051B0D834205D1EE22F1
:10212000E368D2021340AB421BD0184B9C4219D03B
:1021300080235B01164A17491360174A13601F007A
:102140008A689743FBD1C023221D9B0113432122A0
:102150002660A0601A602268002AFCDA0822E56086
:102160001A60F8BD80239B01E4E7C046001BB7005E
:1021700080E84BD380F8A932764900206D490020D1
:10218000D5490020174A0020334A002000C00240F1
:1021900000E0004000C0004000F000408023024A00
:1021A0009B000343D362704700800540024B1A68CE
:1021B000024B5A607047C0463C52002000800540E8
:1021C0008022124BD20510B51A60114C114A1460CE
:1021D000E022114CD204002906D02260002805D14B
:1021E00080231B06236010BD1A60F7E7FA23DB008B
:1021F00058430A4A0A4B904205D81860FFF7D6FFA9
:102200008023DB05EEE71A60F8E7C04600B0054022
:10221000FCFF01000820014000A00540FFFFFF0077
:102220003C52002070B580240A4BE4051C600A4B28
:1022300000280DD00124094D044309486540D861A8
:102240001D6259629C6200211000FFF7B9FF70BD4A
:10225000D861F8E700B00540008005402D3FF84FF9
:10226000D3C007B0AA22064B12011A602F220549DB
:10227000DA60054A11605A68002AFCDA7047C046E5
:102280000040024000B0FA000060024000BEFDE7DE
:1022900010B5FFF7FBFF000013B50C001900074B4A
:1022A000002A01D1064B1A0001920093020023007C
:1022B000044801F057FD0120FFF7E8FF7C4A0020A9
:1022C000D44A0020894A00202A4B2B4A70B51A6054
:1022D0002A4A2B4C15002B4B236018009168884329
:1022E000FBD1294E294B9E4229D3FFF75BFE284B99
:1022F0002360AB68DB018033FBD14022254B2648AD
:102300009A675A671A67DA66244B98421AD3244DA3
:10231000244CC022A168280001F0F8FBEFF30583EC
:10232000A560002B00D000BEFEF736FCFEF71EFEB7
:10233000FFF7D4F81C4C1D4B9C4217D370BD08CE40
:102340009847CFE7040003680834002B0BD0012B1B
:1023500005D0174B174A87211748FFF79DFFFEF757
:102360002CFE2000D0E7FEF71BFEFAE708CC9847CA
:10237000E1E7C04600E00040BFCDFBFE00C00040EA
:1023800000F00040FE7F3C00C84F0020D84F0020E6
:10239000FFFFFF0100F00140C04F0020C84F0020A8
:1023A0000000002000ED00E0D84F0020E04F0020AA
:1023B000D54A0020B84A0020F24A00200FB407B5E1
:1023C000084801F09DFC049B002B07D005A91800CC
:1023D000019101F0A5FC044801F092FC0120FFF7F7
:1023E00055FFC046C54A0020D34A00207047F7B5C4
:1023F00001930B9B06000091150014009B0711D060
:10240000099F099BE018C21B002F12D10B9B441B94
:102410009B071BD4FEBD2200671C019B0099202056
:10242000B0473C00099B0A9A5B1B1B199A42F2D8E1
:10243000E6E7089B013FD85D0099019BB047E0E7C4
:102440000200019B00992020B04701340A9B281903
:10245000A342F5D8DEE7F0B589B010AC2778149C1C
:102460000590069107930E980F99139EA3071ED40B
:1024700001252540002E07D0002D05D0002F02D1C8
:102480000C231C4200D0013E30239C4602E06346F0
:1024900043540131129B994201D22029F7D13023B4
:1024A0009C46002D03D0B14201D21F2919D9E30661
:1024B00039D563051AD4002918D0129B994201D04E
:1024C000B14213D14D1E002D0FD0119B0239102B9C
:1024D0000FD02900119B022B20D11F290ED8622575
:1024E0001AE0634643540131DBE72900119B102BAE
:1024F000F0D1A3060DD478251F290DD901910090A4
:1025000003940296079B06990598FFF770FF09B0A0
:10251000F0BD58251F29F1D8455401311F29EDD8A8
:102520003025455401311F29E8D82D25002F05D12C
:102530002B25630702D42307E0D52025455401311C
:10254000DCE7F0B597B00A921CAA0B9308CA099071
:1025500012780F000C92219D002B01D1102295437F
:102560006A0501D5002B20D06122A90600D54122A1
:102570001E000024D2B20A3A0D921E99300000F0DB
:10258000C9FE0D9ACBB29A188446D2B2092901D855
:102590003033DAB2202006A909180A551E9A631CA6
:1025A000964202D31C00834213D1209A01930592D4
:1025B0001F9A0EAB04921E9A009303920C9A0695F2
:1025C00002920B9B0A9A39000998FFF744FF17B053
:1025D000F0BD6646D1E7F0B599B00C9320AB1B78FF
:1025E0001E9D0D93229B1F9C08932B0009900A911E
:1025F0000B92239F234303D1269A10339A432692AA
:10260000269B5B0504D52B0000222343934226D052
:10261000269A6123920600D541230026DBB20A3BAD
:102620000E93089A3B002800210000F0B1FE0E9B9B
:10263000D2B2D31884460F91DBB2092A01D83032C6
:10264000D3B2202008A90918721C8B55A74206D8BE
:1026500002D1089BAB4202D81600202A14D1269B37
:1026600001920693259B0B9A0593249B0A99049348
:10267000089B099803930D9B029310AB00930C9B4E
:10268000FFF7E9FE19B0F0BD65460F9CC9E710B52C
:10269000002802D00B684968984710BDF0B595B086
:1026A0000D931A9B0B9009931B9B0C910A9310920C
:1026B0000A9B099A09980A9901F0E5F8002811D1B6
:1026C0000122D14B524209980A9901F0D7F800280B
:1026D00008D10122CD4B524209980A9901F0B8F86D
:1026E000002811D01E9B099A04931D9B0C990393FB
:1026F0001C9B0B9802930A9B009201930D9B109ACE
:1027000000F0B6F915B0F0BD0022002309980A992F
:1027100001F09EF8002800D164E180221206944660
:10272000099B06930A9B6344079380231E9ADB0050
:102730001A401192131E01D106331C93069D079B6C
:10274000069E079F1D4300D1ACE05800B04B400DE2
:10275000C01801F0ABF8AF4AAF4B01F03AF8AF4AFE
:10276000AF4B01F017F8079BAE4A1B031B0B1A4334
:1027700004000D0030001100AB4B002201F005F801
:10278000AA4AAB4B01F025F802000B0020002900FB
:1027900001F000F801F0A2F8050001F087F8A54A61
:1027A000A54B06000F0001F014F80022A34B00F027
:1027B000F1FF01F093F8A24A0400A24B3000390067
:1027C00001F007F8060020000F0001F06FF89E4AA4
:1027D0009E4B00F0FEFF02000B003000390000F0BD
:1027E000D4FF02000B000E900F9100F0F2FF0E9A42
:1027F0000F9B06000F001000190000F0CBFF002215
:1028000012901391924B3000390000F0C8FF002263
:10281000904B00F0BFFF02000B003000390000F0C9
:10282000BEFF00228C4B00F0B5FF02000B00300011
:10283000390000F0B4FF0E9A0F9B0F0080210600B4
:10284000C905002000F0A1FF02000B003000390094
:1028500000F0A0FF02000B001298139900F09FFFF8
:102860000022704B00F096FF7C4B0022E4182305F9
:1028700000F0AFFF06000F0002000B00069807995A
:1028800000F0E6FF002808D0300039000022714B2C
:1028900000F085FF06000F00013D2B006333052487
:1028A000C62B00D804241E9B1B0522D533003B43B6
:1028B00011D0069807996A4A6A4B00F0D7FF0028A2
:1028C00000D196E0069807990022674B00F0C0FF00
:1028D000002800D18DE01C9B9D4200DB87E05D1B42
:1028E0006B1E00241C93802325001E9ADB001A43D4
:1028F0001E9200230E931D9BA34201D91B1B0E9316
:1029000002231E9A1A40119205D0634263410E9A27
:102910005B421A400E92002D07D0069807993200AC
:102920003B0000F03CFF069007910022002309982D
:102930000A9900F08DFF002809D080200006844607
:1029400006990A00079961440B00069207931E9AA4
:10295000464B0C99134004930E9B0B9803931C9BBE
:102960000293069A079B009201930D9B109A00F028
:102970007FF8002C00D1C5E645239C461E9B9B0694
:1029800001D465239C460200471C0D9B60460C99B0
:102990000B9EB04705230593002303930A3302934C
:1029A000EB0F0193EB17ED185D40013C0D9B049478
:1029B00000953A000C990B98FFF7C3FD119B002B73
:1029C00000D19FE6109BC41A109B18191D9BA342AF
:1029D00000D897E602000D9B0C9920200B9DA8477C
:1029E0000134F1E7099A0A9B069207939DE60023BA
:1029F00077E71C9B002B00D17BE7119B5A1E93416C
:102A00001C9AD31A1C9374E7FFFFEF7FFFFFEFFFC1
:102A100001FCFFFFFB799F501344D33FB3C8608B89
:102A2000288AC63F0000F03F0000F83F61436F6313
:102A3000A787D23F71A379094F930A400000E03F76
:102A40001655B5BBB16B0240EF39FAFE422EE63F98
:102A500000002C400000244000001840FF0300004C
:102A60002D431CEBE2361A3F80842E41FFF7FFFF17
:102A7000F0B599B009900A910B920C931E9A1F9B86
:102A800010001900209D00F0FEFE002808D0229BB7
:102A90000393219B029303230193AF4B009324E004
:102AA00001221E981F995242AC4B00F0D1FE002823
:102AB00007D0229B0393219B029304230193A84BED
:102AC000ECE701221E981F995242A64B00F0D6FE59
:102AD000002814D00423229A1A420DD0A24A229927
:102AE000019303912199009202910C9B0B9A0A99F0
:102AF0000998FFF77CFC21E09C4A0323EFE70022C2
:102B00001E981F999A4B00F0B9FE002807D11E9815
:102B10001F990022974B00F09BFE002810D0229BAB
:102B200002950493219B0B9A03930A991E9B1F9C69
:102B30000998009301940C9BFFF7B0FD19B0F0BD0C
:102B400000221E981F99002300F082FE002800D169
:102B500081E01E9A1F9B0020002100F016FE012339
:102B60001E901F910D93229B5B0576D52A00302184
:102B700010AB203A089508982C1A092807D908980C
:102B800019700138089001339042F4D120241E9826
:102B90001F9900F0A3FE089B0790DA00764B9B1864
:102BA0001A685B680E920F9300F080FE02000B0023
:102BB0001E981F9900F0E9FD0E9A0F9B00F009FE88
:102BC0000F00060000F0AEFE050000F06BFE0200F4
:102BD0000B003000390000F0D8FD0022674B0600E2
:102BE0000F0000F04BFE002839D00135280000F01E
:102BF00059FE02000B000E980F9900F02FFE0028DE
:102C000003D00025079B01330793089B0A26002B5E
:102C100055D1079800F04AFE02000B001E981F993C
:102C200000F0B3FD0022554B06000F0000F010FE2F
:102C300000280CD10022514B3000390000F01EFE5C
:102C4000002804D10123079A1340D31807932500C5
:102C500010AF0A265BE00D9085E7062586E7002287
:102C6000464B3000390000F0F3FD0028CDD1002D97
:102C700001D0EB07C9D50135C7E7089B3100013BFF
:102C80002800089300F046FB18220AAB30319B184D
:102C90001955671C3100280000F03CFB3C00092D51
:102CA0000CD83020089B10A9DB19202C09D0621CFD
:102CB0009C421AD12E230B551400C8E70500202C86
:102CC000DBD10323229A1340012B31D1219B002B0E
:102CD0002ED00D9B002B02D10C331A4202D0219B27
:102CE000013B219310AB302216E008551400DCE7BD
:102CF0000798310000F0E6FA3031E95507983100C5
:102D000000F0E0FA0134079025000028D9D0202CEB
:102D1000EED1D6E7E25401342199A14208D9202C02
:102D2000F8D1229B01940393219B029310ABB5E64B
:102D3000202CF6D00D9A10AB002A03D02D221A5564
:102D40000134EEE7229A520701D52B22F7E7229AA7
:102D50001207E6D52022F2E7414B0020FFFFEFFFEC
:102D6000454B0020FFFFEF7F3C4B0020384B0020FD
:102D700065CDCD4165CDCDC1504B00200000E03F79
:102D8000F0B599B00B900C910A920E931E9F0029FA
:102D900001D1B64B0B93002515E10E9B01330E9329
:102DA000252807D06C1C2A000A9B0B9D0C99A8476C
:102DB000250008E100240121082005E02D2B16D074
:102DC000302B0CD10C430E920E9B0E9A1B780132C5
:102DD0002B2B0FD0F2D8202B0ED0232B0ED0190086
:102DE000303909292CD800230A200D930EE0022344
:102DF0001C43E8E70423FBE70443E4E71023F7E779
:102E00000D9B0E914343303BD3180D930E9B1A78C4
:102E1000591C1300303B092BF2D90E9B1B782E2B2B
:102E200063D18022D20014430E9A0E9B5278013354
:102E30001100303909294ED80A220026944613E0A1
:102E400000210D912A2BE8D108CF0D938B4204DA93
:102E500002231C430D9B5B420D930E92DDE76346FC
:102E60005E430300303E96191A78581C1100303921
:102E70000929F4D919785A1C6C2940D038D8682906
:102E800045D06A294BD01A001078531C0E93652840
:102E900000D12AE100D9A8E0472800D125E141D896
:102EA000452800D121E100D87CE7462801D1202324
:102EB0001C4307220D9B0737974304940393029604
:102EC0000CCF0C99009201930B980A9B2A00FFF7F4
:102ED000CFFD050077E000262A2ACBD140CFF3436F
:102EE000DB171E400E9B0233C4E70E9B0026C1E792
:102EF000742901D07A29C6D180235B000BE0597870
:102F00006C29F9D1C022920014439A1CBCE759786D
:102F1000682902D080231C43B6E7C022F4E780234F
:102F20009B00F8E7622800D18FE106D8582800D02E
:102F300038E720231C43103B84E0632800D1F3E0F2
:102F4000642800D02EE710239C43063B692802D05A
:102F5000642800D076E0620501D5012294438022E6
:102F600092002240692802D0642800D089E0002A1B
:102F700000D16AE00721FA1D8A43110008310F9140
:102F800011685268049300230593D30F0293D3175B
:102F9000119310934B401693119B0D985340179328
:102FA0000790169A179B10981199121A8B41089442
:102FB0000696009201930C990A9B2A000B98FFF742
:102FC0000AFB05000F9F0E9B1878002800D0E4E64E
:102FD0000A9B2A009D4200D35A1E0A9B0C9900208E
:102FE0000B9CA047280019B0F0BD6F2800D12AE142
:102FF00007D8672879D000D257E7692800D0D1E6F2
:10300000A1E7732800D1C1E015D8702800D0C9E627
:1030100021231C43193B0493083302930023059496
:103020000396019308CF2A0000930C990A9B0B98F2
:10303000FFF787FA4DE7752800D184E71023782839
:1030400000D0AFE60C22944385E73A1D0F92E205CB
:103050000ED53A680293D30F0D990193D317D21866
:103060000594049103965A40009227E0B92100206C
:103070003A68610601D5D2B2ECE72106EAD512B270
:10308000E8E7002A0ED0072207379743049300236E
:1030900039000D9A089407920696059302930CC97D
:1030A0000F9186E7391D0F91E1050ED50D99059415
:1030B00004910396029301923B6800930A9B2A00B5
:1030C0000C990B98FFF73DFA7BE73A68610608D543
:1030D000D2B2029300230D990594049103960193B3
:1030E000C2E72106F5D592B2F3E7202302009A4306
:1030F000472A04D180231B011C43022398434528FF
:1031000001D120231C4307220D9B073797430494CA
:10311000039302960CCF0C99009201930B980A9B93
:103120002A00FFF7BBFAD4E602231C4012942BD0EE
:1031300001232A000F9301CF0A9BC0B20C990B9C6C
:10314000551CA047129B002B00D13CE70F9B0D9A0A
:10315000934200D337E76C1C0A9B2A000C990B9D05
:103160002020A8470F9B250001330F93EEE70A9B11
:103170000C9920200B9CA047B31C0F930D9B721938
:103180000136B342F3D8D6E7129EF5E73B0004CBF5
:1031900012930F92331E01D101235B420F9A170045
:1031A000D3183A78002A01D0BB4211D10F9BFF1AE5
:1031B0008023DB002340149302D0B74200D93700AC
:1031C00002232340159314D02C00139727001AE0F4
:1031D0000137E6E70A9B22000C9920200B9CA047B0
:1031E000139B5A1C13920D9AEC1BE4189A42F1D8C7
:1031F000ECE73B00F5E71E007D1C3A000A9B0B9FA5
:103200000C99B8472F000F9B1B1BD85D002805D0D9
:10321000149B002BF0D0731E002EECD1159B3D00AB
:10322000002B09D1129FCEE66C1C2A000A9B0B9D35
:103230000C992020A8472500139B0D9ADB1B5B19D6
:103240009A42F1D8EEE70823FCE60223FAE6C046EC
:103250001FB50391012102900093044813004A42D4
:1032600002A9FFF78DFD05B000BDC0465B2400201C
:1032700001480421014B1847A04F00206D30002069
:10328000142310B50100188804331B88984710BD1B
:10329000162310B50100188802331B88984710BD0B
:1032A00070B50400012689004518AC4201D13000F8
:1032B00070BD2068FFF7E4FF01C4431E98414042FF
:1032C0000640F2E7124A936F9B0815D29066D166CA
:1032D000002905D0FFE7FFE7FFE7516F106F704748
:1032E00004B580210906C2175140002800D0C84308
:1032F00000F072FD002104BDF0B5146E556E576FDD
:10330000166FFFF7E3FF1466556657671667F0BD43
:10331000000000D0114A936F9B0813D210665166CB
:10332000002905D0FFE7FFE7FFE7516F106F7047F7
:1033300004B5002801D00020C04300F04DFD00215D
:1033400004BDC046F0B5146E556E576F166FFFF78B
:10335000E5FF1466556657671667F0BD000000D09C
:1033600094464A4A926F9208624601D228E0C046CB
:10337000F0B5464E346E756E776F366F00F020F8FC
:103380009446424A14665566576716676246F0BD12
:1033900094463E4A926F9208624601D254E0C0467B
:1033A000F0B53A4E346E756E776F366F00F04CF8AC
:1033B0009446364A14665566576716676246F0BDEE
:1033C000002B24DB11D000293EDA00B5C94340426E
:1033D00000D1013100F038F8C943404200D1013139
:1033E000DB43524200D1013300BD002AEBD100285B
:1033F00001D1002905D00020C90FC90701D1C04360
:10340000410800B500F0E8FC0022002300BD00B533
:1034100000290ADBDB43524200D1013300F014F8EB
:10342000C943404200D1013100BDC943404200D1EF
:103430000131DB43524200D1013300F005F8DB4398
:10344000524200D1013300BD002923D1002B18D1F5
:10345000002A0CD0BC460D4F38667A660021002346
:10346000FFE7FFE7FFE77A6F386F6746704700288E
:1034700001D00748010000B500F0AEFC0022002397
:1034800000BD02000B00002000217047000000D0AA
:10349000FFFFFFFF002B00D0BFE0130C28D1002A54
:1034A000E7D080B4114F39667A66FFE7FFE730B4A2
:1034B000040C7B6F396F1B0423433B667A66FFE77E
:1034C000FFE7FFE7C04684B27B6F3D6F1B042343D9
:1034D0003B667A66FFE7FFE7C04600232C042D0C0D
:1034E0007A6F386F00196941B0BC7047000000D096
:1034F000F0B594460025140E01D112020835140FC0
:1035000001D112010435940F01D192000235D40F7C
:1035100001D152000135D40B0134254F7C66254C76
:103520003C660E0C93B2FFE7FFE7FFE73C6F664394
:10353000360C7703BE467343DF0B5B04C01AB941F8
:10354000130C7343DB18C91ACE086643360CB64415
:1035500093B273431F0F1B01C01AB941130C73437D
:103560001F0B1B05C01AB941860D8F023E436643EF
:10357000360C092D24DB520A7243801A7703460A5F
:103580006643360C16235B1BDE40DF40BF196446E2
:103590006643821B7046043506330100D940A840BB
:1035A000C01900D30131A24206D20023F0BD0000B1
:1035B000000000D0FFFFFFFF121B0130F3D3F1E743
:1035C00009277F1BFE406446A2B27243801A00D2D4
:1035D0000139220C7243130C1204821A99410B0018
:1035E0007046043513370100F940A840801900D314
:1035F0000131002B02D1A2420AD2F0BD013000D32A
:103600000131121BFAD2013BF8D1A24200D2F0BD27
:10361000013000D30131121BF7E7F0B51C0C00D0CC
:1036200080E00CB400251C0A04D11B02160E3343A3
:10363000120208351C0B04D11B01160F3343120173
:1036400004359C0B04D19B00960F33439200023546
:10365000DC0B02D192185B4101351C0097186441C4
:103660000134464F7C66464C3C660E0CFFE7FFE794
:10367000FFE7C0463C6F6643360C7703BE4697B201
:103680007743C01B00D20139C01B00D201399FB261
:103690007743C91BC91B170C77437E04FF0B801BA4
:1036A000B941CE086643360C0C2D33DBB644120B01
:1036B0001F053A431B0B97B27743C01B00D2013959
:1036C0009FB27743C91B170C77433E043F0C801B06
:1036D000B941860D8F023E43664329277F1BFE407A
:1036E0000C3D7746AF40BF1930BCA2B2ABB27243BB
:1036F0007343801A9941220C7243130C1204801AEE
:10370000994102000B000137001BA941F9D2781E34
:103710000021F0BD0C277F1BFE4077467F0BAF409A
:10372000FF19E0E700245D1C07D0144F7D66396661
:10373000FFE7FFE7FFE7FFE73C6F95B29EB2654307
:103740006643401BB141150C1E0C654366433604AD
:103750002F0C3E432D04401BB141994204D202007C
:103760000B0020000021F0BD01D19042F7D3801A58
:10377000994101349942F2D3F6E70000000000D0ED
:10378000FFFFFFFF48404140484018B4134B5B68BF
:10379000019308BD18B4114B1B68019308BD9446F2
:1037A0000F4A926F920805D2624618B40B4BDB6841
:1037B000019308BD0A4AF0B5146E556E576F166F27
:1037C0006246FFF7F2FF064A1466556657671667AA
:1037D000F0BD18B4014B9B68019308BDB4520020A2
:1037E000000000D0FFB550404240504059404B408F
:1037F000594000E0FFB5154F4C00640D03D0BC42AA
:1038000004D10C0314D80020090D09055C00640DD7
:1038100003D0BC4204D11C030AD800221B0D1B0597
:1038200001264B4009D44B4003D58B4200D1824244
:10383000FFBD9942FCD19042FFBD0B43DB1803430F
:103840001343F5D0C9434918FFBD0000FF0700002E
:1038500000B5FFF7CFFF804100BDC04600B5FFF7C0
:10386000C9FF01D9002000BD012000BD00B5FFF750
:10387000B9FF01D9002000BD012000BD00B5FFF750
:10388000B1FF804100BD012040054A00121804D854
:103890005A00121801D800207047012070470020FC
:1038A000704700000021002805D17047C11748402B
:1038B000401AFAD0C90713B5064B1B6898470CBCD1
:1038C000441CA2401005120B0349091B09051943AA
:1038D000114310BD505200201F04000010B54C00D1
:1038E000620D8023D218DB00D21A5B057E2A10DD20
:1038F0009E3A13DACC170903490819435242D140C2
:10390000640001341532202A05DAD04008436043B0
:1039100010BD002010BD0846604310BDC80FC01880
:10392000013810BD18B4024B5B6A019308BD00005A
:10393000B452002010B50148FEF740FD534C002062
:10394000132370B51D78204C012D0ED100231F4983
:103950009A000133A150202BFAD11D4BA3641D48BE
:10396000FFF78EFC1C4B186070BD012DF5DD1B4868
:10397000FFF78EFC06001A48FFF78AFC023803782E
:103980009B007F2B05DC174B174A32211748FEF7A7
:1039900083FC80223100200000F0B8F8022DDED137
:1039A000134B1A88B5231B029A4209D1114A124BB4
:1039B00012889A4204D1114A114B12889A42CCD0F3
:1039C0000020FEF7FBFCC046B45200200137002067
:1039D000D13700204C3300005052002053440000E7
:1039E00053460000A04B00203F4C0020F24B00202B
:1039F00054380000D8380000494600009C380000C8
:103A00005946000007B5604601880A0A0230DF2ADD
:103A1000FAD1C9B2820804D3028840880004104356
:103A200000E00068014A5050039007BDB4520020E6
:103A300051434343C9188C46110C83B24B4310B415
:103A4000040C614392B280B2504362431C041B0CCD
:103A5000001910BC59411304120CC01851416144A3
:103A60007047000010B50148FEF7A8FCD44A0020BA
:103A7000132310B516481C78FFF70AFC0100012C2F
:103A800014D1144C5422200000F040F80023124AB4
:103A90002168002900D1226001330434202BF7D1A2
:103AA0000E48FFF7EDFB0E4B186010BD012CF7DD43
:103AB000831E1B789B007F2B05DC0A4B0A4A4221A0
:103AC0000A48FEF7E9FB8022024800F01FF8E7E70A
:103AD00053460000B4530020313800204C3300001E
:103AE000505200206B4C0020E84C00209D4C0020E0
:103AF00001480421014B1847B04F00206D300020D1
:103B0000014B1B6818470000B04F0020014B5B6859
:103B100018470000B04F0020030010B508001B68D4
:103B20001100984710BD0000F8B5437D05000C005A
:103B30001600002B32D103681100200098472AE0BC
:103B4000002929DD631E5B5C0D3B5A425341DBB209
:103B5000625C4F1C0A2A0CD1002B0AD1814203DD82
:103B6000091A2B68201898470E4802212B6898479D
:103B7000380039008E42E3DC864203DD311A2B68BF
:103B800020189847002E06DDA419013C23780D3B30
:103B90005A4253412B75F8BD2B7DD9E7002108000F
:103BA000E8E7C046834D002070B505000A4B1C684D
:103BB000002C01D12C6070BD2368002B0AD0074B6C
:103BC0001B68002B01D09C4204D12900200004C9AD
:103BD000FFF7AAFF2469EBE7345200203852002097
:103BE0000B6870B505000C00802B02D10800FFF7B0
:103BF000DBFF23685A1C2260E418257170BD0000A9
:103C000010B5034B034A3F210348FEF745FBC0466E
:103C1000FA4600206E4D00201547002010B5FDF734
:103C200037FE002901DAFFF7EBFF0023054A1218DF
:103C30004B41002B02DA0122034B5242034800F0B1
:103C40008FF910BD40420F00FFFFFF7FC04F0020E3
:103C500010B5024800F09CF910BDC046C04F0020CE
:103C6000F0B585B007000C0000921D00FFF7D6FFED
:103C70000190631C03D1380000F0D8F80400154E01
:103C8000002D00D1144E154B1D68002D09D1019B4C
:103C9000002B01D0FFF7DCFF601E8441E0B205B0CD
:103CA000F0BD2B68002B13D00D4B1B68002B01D0EF
:103CB000AB420DD1220039002800B047009B002BF9
:103CC00006D002ABD91D0A23012228000B70B04791
:103CD0002D69DAE7E5380020F5380020345200205D
:103CE00038520020054B10B51C68002C00D110BDC7
:103CF0006368002B00D098472469F6E7345200200F
:103D000070B5050000F092F80400010000230122C4
:103D10002800FFF7A5FFFFF7E5FF200070BD0000BA
:103D200070B5A2B004000E00FFF778FF0023220058
:103D300001930500330001A90948FFF789FA019BA7
:103D40000400002B02D001A8FFF72EFFFFF7CAFFE7
:103D5000002D01D0FFF77CFF200022B070BDC046CF
:103D6000AD3900200FB407B504A901C90191FFF7CF
:103D7000D7FF03B008BC04B01847000010B501001D
:103D80000148FCF7E3FE10BD6852002007B5044B64
:103D90000100009300220B230248FCF7ACFE0EBD8D
:103DA000854D00206852002010B50520FEF774F9FB
:103DB000014B186010BDC046B454002010B5FFF789
:103DC000F3FF10BD02B4714649084900095C49007F
:103DD0008E4402BC7047C0467047C04630B5032AC7
:103DE0000CD903000B439B071CD103680C68A3424A
:103DF00018D1043A04300431032AF6D8551E002A9B
:103E00000ED002780C7894420ED10135012301398D
:103E100004E0C25C0133CC5CA24205D1AB42F8D1D4
:103E2000002030BD551EECE7101BFAE710B58307E4
:103E300027D00378002B26D00300032102E01A7854
:103E4000002A1CD001330B42F9D119680F4A104CDB
:103E50008A188A4322420FD1043319680B4A8A1800
:103E60008A43224208D104331968084A8A188A43CF
:103E70002242F1D000E001331A78002AFBD1181A4F
:103E800010BD0300E1E70020FAE7C046FFFEFEFE9A
:103E900080808080F8B5C046030010B50068EFF35D
:103EA000108472B60268002AFCD0BFF35F8F042230
:103EB0009A56002A0CDAD0220120120612681A71D2
:103EC0001B68BFF35F8F00221A6084F3108810BD57
:103ED000081EF5D00A600020F2E70000F7B51F00C9
:103EE000036805001600002B05D1174B174A8521E2
:103EF0001748FEF7CBF9D0231B061B6801932968EE
:103F0000EFF3108372B60A68002AFCD0BFF35F8F0C
:103F100029792A6800247F2908D901992971BFF3DA
:103F20005F8F146083F310880120FEBDBFF35F8FA5
:103F3000146083F3108830003900FDF72BFC002853
:103F4000DDD02000F1E7C046C14300205B430020E4
:103F50008443002073B501A9060014001D00FFF77B
:103F60009BFF00280CD1D0221206019B12785BB275
:103F700052B2934204D022002B003000FFF7AEFF74
:103F800076BD000010B50168EFF3108372B60A68C1
:103F9000002AFCD0BFF35F8F02797F2A05D9084B36
:103FA000084AB4210848FEF771F9FF22027102683D
:103FB000BFF35F8F0021116083F3108840BF10BDF5
:103FC000D54300207343002084430020084A10B5E5
:103FD0001378002B0AD18023064807495B051C682B
:103FE000C45004338B42FAD10123137010BDC04674
:103FF0006A5200200C5100100001001010B5024B55
:104000000133984710BDC0460C5100208023F0B505
:104010000A1885B003900F005B049A4205D941212C
:104020001C4B1D4A1D48FEF731F91824142523881E
:104030001B4928889847238802901A49288898475E
:104040002388019018492888984723880600174933
:1040500028889847029B0400002B06D0019B002B68
:1040600003D0002E01D0002803D1114B0A4A492168
:10407000D8E7FFF7ABFF029B9847019B9847802248
:10408000D823520239000398B047A047FFF7B6FF84
:1040900005B0F0BDC94D0020A34D0020F54D002016
:1040A00049460000455800005245000046430000C4
:1040B0003B4E00208023F0B585B002921218070015
:1040C00003915B049A4205D958211C4B1C4A1D4898
:1040D000FEF7DCF81824142523881B492888984704
:1040E0002388019019492888984723880090184907
:1040F0002888984723880600164928889847019BF6
:104100000400002B06D0009B002B03D0002E01D012
:10411000002803D1104B0A4A6021D8E7FFF756FF69
:10412000019B9847009B9847029A03993800B04733
:10413000A047FFF763FF05B0F0BDC046C94D0020A2
:10414000B54D0020F54D00204946000045580000BF
:1041500052500000464300008E4E00206368616E9E
:104160006E656C5F636F6E6669675F7365745F63CE
:104170006861696E5F746F0073746174655F776105
:1041800069745F666F725F73796E630053594E4353
:104190000000000000000000000000000D010020F1
:1041A00052454144020000000000000015010020BB
:1041B000550200204353554D02000000010000004D
:1041C00035010020710400204352434302000000E7
:1041D00001000000550100205904002045524153C0
:1041E0000200000000000000000000001502002096
:1041F0005752495402000000010000005D010020F8
:10420000350400205345414C03000000000000002D
:1042100000000000C1030020474F474F010000008D
:1042200000000000000000001D050020494E464F20
:104230000000000005000000000000009D010020BB
:10424000424F4F540100000000000000C90100204F
:10425000D9010020636861696E5F746F203C3D2066
:104260004E554D5F444D415F4348414E4E454C5382
:10427000002F55736572732F616E647265796B6977
:10428000736C697473796E2F7069636F2D73646BCF
:104290002F7372632F7270325F636F6D6D6F6E2F4D
:1042A00068617264776172655F646D612F696E63C6
:1042B0006C7564652F68617264776172652F646DD7
:1042C000612E6800526561647920666F72206669AC
:1042D000726D776172652075706C6F6164006374D4
:1042E000782D3E6F70636F6465203D3D20434D44E3
:1042F0005F53594E43002F55736572732F616E647F
:104300007265796B69736C697473796E2F446F632E
:10431000756D656E74732F4769744875622F6F7081
:10432000656E2D6C63632D7270323034302D62698E
:10433000616E63612F6C69622F7270323034302D80
:1043400073657269616C2D626F6F746C6F61646507
:10435000722F6D61696E2E630068775F636C6169AF
:104360006D5F636C6561720068775F69735F636C32
:1043700061696D656428626974732C206269745F79
:10438000696E64657829002F55736572732F616EAD
:10439000647265796B69736C697473796E2F706977
:1043A000636F2D73646B2F7372632F7270325F6350
:1043B0006F6D6D6F6E2F68617264776172655F6398
:1043C0006C61696D2F636C61696D2E630069727138
:1043D0005F7365745F6578636C75736976655F6834
:1043E000616E646C6572006D616B655F6272616EB7
:1043F000636800696E736572745F6272616E636890
:104400005F616E645F6C696E6B007265736F6C7672
:10441000655F6272616E6368006972715F72656D7B
:104420006F76655F68616E646C6572006972715F5A
:104430006164645F7461696C5F746F5F6672656507
:104440005F6C6973740069735F7368617265645F40
:104450006972715F7261775F68616E646C65722802
:10446000736C6F745F68616E646C65722900657847
:1044700063657074696F6E00666F756E64002165A8
:104480007863657074696F6E207C7C2065786365E5
:104490007074696F6E203D3D206E756D202B205627
:1044A0005441424C455F46495253545F4952510072
:1044B000212864656C7461203E3E203131752900ED
:1044C00066616C73650063757272656E74203D3D44
:1044D000205F5F756E68616E646C65645F7573659F
:1044E000725F697271207C7C2063757272656E7474
:1044F000203D3D2068616E646C65720064656C747B
:1045000061203E3D202D323034382026262064653F
:104510006C7461203C3D2032303436202626202128
:104520002864656C7461202620312900307831635D
:10453000203D3D20282A696E7374293E3E31317535
:10454000002F55736572732F616E647265796B69A4
:10455000736C697473796E2F7069636F2D73646BFC
:104560002F7372632F7270325F636F6D6D6F6E2F7A
:1045700068617264776172655F6972712F697271C7
:104580002E63006D757465785F656E7465725F6229
:104590006C6F636B5F756E74696C006D75746578B4
:1045A0005F6578697400746F74616C002F55736572
:1045B00072732F616E647265796B69736C69747361
:1045C000796E2F7069636F2D73646B2F7372632F15
:1045D000636F6D6D6F6E2F7069636F5F73796E635C
:1045E0002F6D757465782E63006D74782D3E636F42
:1045F00072652E7370696E5F6C6F636B006C6F63B6
:104600006B5F69735F6F776E65725F69645F766118
:104610006C6964286D74782D3E6F776E6572290021
:104620006D74782D3E656E7465725F636F756E7420
:10463000007570646174655F75735F73696E63653F
:104640005F626F6F740070685F6765745F6E6F6440
:10465000650070685F6164645F6368696C645F6E65
:104660006F64650070685F667265655F6E6F646534
:10467000006765745F656E747279006765745F6565
:104680006E7472795F69645F6869676800616C6104
:10469000726D5F706F6F6C5F6765745F6465666194
:1046A000756C74006164645F616C61726D5F756EDE
:1046B0006465725F6C6F636B00616C61726D5F70DB
:1046C0006F6F6C5F616C61726D5F63616C6C626176
:1046D000636B00616C61726D5F706F6F6C5F6361C3
:1046E0006E63656C5F616C61726D002170685F6301
:1046F0006F6E7461696E735F6E6F646528706F6F43
:104700006C2D3E686561702C2072657573655F69FC
:1047100064290072656D6F7665645F6964203D3D54
:10472000206E6578745F69640063616C6C626163BC
:104730006B00706F6F6C2D3E616C61726D5F696EA6
:104740005F70726F6772657373203D3D206D616BA2
:10475000655F7075626C69635F69642869645F682E
:104760006967682C206E6578745F696429006964E4
:10477000202626202170685F636F6E7461696E73F6
:104780005F6E6F646528686561702C20696429001C
:1047900021686561702D3E667265655F7461696C44
:1047A0005F696400616C61726D5F696420213D2006
:1047B000706F6F6C2D3E616C61726D5F696E5F70C2
:1047C000726F67726573730072630064656661750A
:1047D0006C745F616C61726D5F706F6F6C5F696E3E
:1047E000697469616C697A656428290069642026A6
:1047F00026206964203C3D20706F6F6C2D3E6865FB
:1048000061702D3E6D61785F6E6F646573002F552A
:10481000736572732F616E647265796B69736C690D
:104820007473796E2F7069636F2D73646B2F73725D
:10483000632F636F6D6D6F6E2F7069636F5F746947
:104840006D652F74696D652E6300706172656E749D
:104850005F696400706172656E745F696420213DF8
:10486000206368696C645F6964006964202626209F
:104870006964203C3D20686561702D3E6D61785F04
:104880006E6F646573002F55736572732F616E646C
:104890007265796B69736C697473796E2F70696373
:1048A0006F2D73646B2F7372632F636F6D6D6F6EFB
:1048B0002F7069636F5F7574696C2F696E636C75B7
:1048C00064652F7069636F2F7574696C2F706865EC
:1048D00061702E6800417474656D70746564207435
:1048E0006F20736C65657020696E73696465206FF5
:1048F0006620616E20657863657074696F6E2068EC
:10490000616E646C65723B207573652062757379A6
:104910005F7761697420696620796F75206D7573A2
:10492000740075735F73696E63655F626F6F742087
:104930003C3D20494E5436345F4D4158002F55734D
:104940006572732F616E647265796B69736C6974DB
:1049500073796E2F7069636F2D73646B2F7372633D
:104960002F636F6D6D6F6E2F7069636F5F62617320
:10497000652F696E636C7564652F7069636F2F7442
:10498000797065732E68007570646174655F757306
:104990005F73696E63655F626F6F740068617264F4
:1049A000776172655F616C61726D5F7365745F746E
:1049B0006172676574004861726477617265206135
:1049C0006C61726D20256420616C72656164792070
:1049D000636C61696D65640074696D65725F6877A9
:1049E0002D3E696E74732026203175203C3C206179
:1049F0006C61726D5F6E756D002F55736572732FEC
:104A0000616E647265796B69736C697473796E2F0A
:104A10007069636F2D73646B2F7372632F727032C2
:104A20005F636F6D6D6F6E2F686172647761726521
:104A30005F74696D65722F74696D65722E630070A5
:104A4000685F6765745F6E6F64650070685F61645E
:104A5000645F6368696C645F6E6F64650070685F53
:104A600072656D6F76655F616E795F686561640020
:104A700070685F72656D6F76655F616E645F6672A8
:104A800065655F6E6F6465006E65775F7375625F05
:104A90007472656520213D20686561702D3E726FDE
:104AA0006F745F6964002F55736572732F616E6454
:104AB0007265796B69736C697473796E2F70696351
:104AC0006F2D73646B2F7372632F636F6D6D6F6ED9
:104AD0002F7069636F5F7574696C2F7068656170A2
:104AE0002E63002170685F6765745F6E6F64652870
:104AF000686561702C20726F6F745F6964292D3E48
:104B00007369626C696E67002170685F6765745FC6
:104B10006E6F646528686561702C20726F6F745FBA
:104B20006964292D3E706172656E7400636C6F63F9
:104B30006B5F636F6E666967757265007372635F42
:104B400066726571203E3D2066726571002F557357
:104B50006572732F616E647265796B69736C6974C9
:104B600073796E2F7069636F2D73646B2F7372632B
:104B70002F7270325F636F6D6D6F6E2F686172643C
:104B8000776172655F636C6F636B732F636C6F63C8
:104B90006B732E6300706C6C5F696E697400766372
:104BA0006F5F66726571203E3D20285049434F5F1C
:104BB000504C4C5F56434F5F4D494E5F46524551F6
:104BC0005F4B485A202A204B485A29202626207617
:104BD000636F5F66726571203C3D20285049434FEA
:104BE0005F504C4C5F56434F5F4D41585F465245B6
:104BF000515F4B485A202A204B485A29002F5573A1
:104C00006572732F616E647265796B69736C697418
:104C100073796E2F7069636F2D73646B2F7372637A
:104C20002F7270325F636F6D6D6F6E2F686172648B
:104C3000776172655F706C6C2F706C6C2E630066B0
:104C400062646976203E3D20313620262620666249
:104C5000646976203C3D203332300028706F7374D5
:104C60005F64697631203E3D203120262620706F1A
:104C700073745F64697631203C3D203729202626F5
:104C80002028706F73745F64697632203E3D203156
:104C900020262620706F73745F64697632203C3D55
:104CA000203729002C2066756E6374696F6E3A2078
:104CB00000617373657274696F6E20222573222000
:104CC0006661696C65643A2066696C6520222573AB
:104CD000222C206C696E65202564257325730A00DB
:104CE00072756E74696D655F696E6974000A2A2A4F
:104CF0002A2050414E4943202A2A2A0A0031203DC9
:104D00003D202875696E747074725F74296C2D3E35
:104D10007370696E5F6C6F636B002F557365727390
:104D20002F616E647265796B69736C697473796EE7
:104D30002F7069636F2D73646B2F7372632F7270A2
:104D4000325F636F6D6D6F6E2F7069636F5F727529
:104D50006E74696D652F72756E74696D652E630072
:104D6000666E6900666E692B006E616E00666E6924
:104D70002D00000000000000000000000000F03FD7
:104D80000000000000002440000000000000594026
:104D90000000000000408F40000000000088C34079
:104DA00000000000006AF8400000000080842E41EE
:104DB00000000000D01263410000000084D797413A
:104DC0000000000065CDCD412A282875696E743831
:104DD0005F74202A29726F6D5F646174615F6C6F0C
:104DE0006F6B757028726F6D5F7461626C655F6365
:104DF0006F6465282753272C2027462729292D3221
:104E000029202A2034203E3D2053465F5441424C05
:104E1000455F56325F53495A45002F55736572738B
:104E20002F616E647265796B69736C697473796EE6
:104E30002F7069636F2D73646B2F7372632F7270A1
:104E4000325F636F6D6D6F6E2F7069636F5F646F3C
:104E500075626C652F646F75626C655F696E6974ED
:104E60005F726F6D2E63005F5F61656162695F6491
:104E70006F75626C655F696E6974006D69737369E3
:104E80006E6720646F75626C652066756E63746909
:104E90006F6E002A282875696E74385F74202A297D
:104EA000726F6D5F7461626C652D3229202A203427
:104EB000203E3D2053465F5441424C455F56325F91
:104EC00053495A45002F55736572732F616E647292
:104ED00065796B69736C697473796E2F7069636F30
:104EE0002D73646B2F7372632F7270325F636F6DFB
:104EF0006D6F6E2F7069636F5F666C6F61742F6684
:104F00006C6F61745F696E69745F726F6D2E6300A0
:104F10005F5F61656162695F666C6F61745F696E36
:104F200069740006005250BBFF3CB63B4D002006A2
:104F3000005250E182887F274D002006005250D356
:104F4000F075421F4D002052656C6561736500620B
:104F50006F6F74325F7732357130383000312E35F3
:104F60002E310061726475696E6F5F6E616E6F5F86
:104F70007270323034305F636F6E6E6563740062DE
:104F80006F6F746C6F61646572004D6179202035BC
:104F90002032303236007570646174655F75735FFE
:104FA00073696E63655F626F6F74000D0A4E6F20E8
:104FB000444D41206368616E6E656C73206172655B
:104FC00020617661696C61626C6500666C61736812
:104FD0005F72616E67655F657261736500666C61C3
:104FE00073685F72616E67655F70726F6772616D23
:104FF00000666C6173685F6F666673202B20636F59
:10500000756E74203C3D205049434F5F464C4153E0
:10501000485F53495A455F4259544553002F5573D1
:105020006572732F616E647265796B69736C6974F4
:1050300073796E2F7069636F2D73646B2F73726356
:105040002F7270325F636F6D6D6F6E2F6861726467
:10505000776172655F666C6173682F666C617368F7
:105060002E6300636F6E6E6563745F696E74657244
:105070006E616C5F666C61736820262620666C61C9
:1050800073685F657869745F78697020262620668A
:105090006C6173685F72616E67655F65726173658D
:1050A00020262620666C6173685F666C7573685F86
:1050B000636163686500636F6E6E6563745F696EDC
:1050C0007465726E616C5F666C6173682026262061
:1050D000666C6173685F657869745F7869702026B3
:1050E0002620666C6173685F72616E67655F7072BF
:1050F0006F6772616D20262620666C6173685F663B
:105100006C7573685F636163686500636F6E6E657D
:1051100063745F696E7465726E616C5F666C6173F7
:105120006820262620666C6173685F657869745F05
:1051300078697020262620666C6173685F666C75DE
:1051400073685F6361636865000000001000000021
:10515000000000000000010000000000000000004E
:10516000000002000000000000000000000003003A
:1051700000000000000000000000FF000000000030
:1051800001B5486801318E4600477046093801492B
:10519000884701BD5D0C0020884F00200000000002
:1051A000E04F00206C5200200000000000000000D2
:1051B0007C520020000000000000000010000000F1
:1051C0000000000000000000503300004C330000DD
:1051D00054330000523300004D5300004D43000093
:1051E00053340000433400000000000000000000C1
:1051F000BD3800203D3000200D3700203D38002014
:08520000ED000020893B0020B5
:0C600000ADDEADDE00000000ADDEADDE68
:1080000000200420F7800010C3800010C5800010FD
:10801000C1800010C1800010C1800010C18000101C
:10802000C1800010C1800010C1800010C780001006
:10803000C1800010C1800010C9800010CB800010EA
:10804000CD800010CD800010CD800010CD800010BC
:10805000CD800010CD800010CD800010CD800010AC
:10806000CD800010CD800010CD800010CD8000109C
:10807000CD800010CD800010CD800010CD8000108C
:10808000CD800010CD800010CD800010CD8000107C
:10809000CD800010CD800010CD800010CD8000106C
:1080A000CD800010CD800010CD800010CD8000105C
:1080B000CD800010CD800010CD800010CD8000104C
:1080C00000BE00BE00BE00BE00BE00BEEFF30580D5
:1080D000103800BEF2EB8871187E02103C7E021050
:1080E0003481001090A31AE700201F49086006C8D9
:1080F00081F3088810471D48006800282FD10DA47F
:108100000ECC002902D000F012F8F9E71849194AFC
:10811000002000E001C19142FCD11749884717496E
:1081200088471749884700BEFDE701C901C29A4246
:10813000FBD370473C7E0210C00000205443002057
:10814000DCC002100000042000000420DCC002108B
:1081500000100420001004200000000070470948AF
:1081600009F076FB0047000008ED00E0000000D0B9
:1081700060430020FC5200203900011015890010D6
:10818000FDFF00105756000006005250ABB360537D
:108190002846021006005250861C03024C4602106C
:1081A000060052505422A29D58460210050052501B
:1081B000DE65F468DCC00210F8B5C04610B5064CA8
:1081C0002378002B07D1054B002B02D0044800E098
:1081D00000BF0123237010BD784400200000000080
:1081E00010300210044B10B5002B03D00349044893
:1081F00000E000BF10BDC046000000007C4400202D
:108200001030021010B5034B186801F071FB01200B
:1082100010BDC046A850002010B5034B034A3F21B3
:10822000034807F0EFFEC04608310210803102100B
:108230002431021010B5D024FF23240620682365C2
:108240000F30044905F06EFB206801210F3005F066
:1082500043FB10BDC100002001207047002801D160
:10826000014870470020FCE7481C002010B502219F
:10827000012005F08FF90221002005F08BF9E121A2
:108280004348490207F0DAFA0221052005F082F995
:108290000121052005F0AEF90221042005F07AF94C
:1082A0000121042005F0B8F996213A4C89013A4899
:1082B00007F0C4FA210039480BF04CF903210820DB
:1082C00005F068F90321092005F064F90022012175
:1082D000082005F077F900220121092005F072F944
:1082E00021002F480BF036F90321062005F052F942
:1082F0000321072005F04EF900220121062005F098
:1083000061F900220121072005F05CF92549264882
:108310000BF028F801210A2005F03CF901210C207E
:1083200005F038F901210B2005F034F9112005F092
:10833000A5F9D024802324069B0263620D2063618B
:1083400005F09CF980239B0163620E20636105F0B8
:1083500095F98023DB0163620F20636105F08EF9DC
:1083600080231B0263621020A36105F087F980233C
:108370005B02A36200220121102005F023F91920DD
:1083800005F07CF980239B046362636110BDC046E5
:1083900000400340A086010000800340B03A002066
:1083A000B83A002020A1070000000440F0B5C646FE
:1083B00000B5070084B023480AF0CAFE22480AF03C
:1083C000C7FE224B00240F259846214E254233D06C
:1083D0007823234021D0782B1FD000230F22009335
:1083E000E1B201336A4438000BF0B2F9002814DB23
:1083F00040460AF085FF2B0023400F2B14D0154870
:1084000001340AF07DFF802CE0D113480AF0A0FE71
:10841000002004B004BC9046F0BD10480AF070FF84
:108420002B0023400F2BEAD10A2001340AF082FEF0
:10843000802CEAD02542CBD1210030000AF060FF29
:10844000C6E7C0461430021024300210103002106B
:108450005830021060300210643002106473021051
:10846000F0B5DE46454657464E46E0B5D3B0FFF779
:10847000E1FE26AC8822002130A80AF0DBFC28228D
:10848000002120000AF0D6FC0C23BF4D21002868F3
:10849000237007F0DDF806F009FD002900DA65E138
:1084A0000023BA4A8018594120902191002904DA0A
:1084B0000123B74C5B4220932194502011F07EFAA7
:1084C000B44B2A6819680400984604F0ABFCB24E1D
:1084D0001420346011F072FAB04B2A681B68B0495E
:1084E000239333680400019343461B680093239B46
:1084F00002F0CCFAAB4FAA483C6002F04FFAAA4C0B
:108500002000FFF753FFA948FFF750FF0C2011F0A0
:1085100055FA8C23DB008380002383710023836062
:10852000A34B04609A46186002F0DCFF002800D0DC
:1085300017E10C2011F042FA9E4B04608380002367
:108540008371002383609C4B186002F0CBFF0028EE
:1085500000D001E10C2011F031FA984B04608380C7
:108560000023837100238360954B9B46186002F0C3
:10857000B9FF002800D0EAE0D0231B065B68DB03CC
:1085800000D4DDE05346186802F0ACFF002800D0AC
:10859000D2E08C480AF0DCFD5B46186802F0A2FFCE
:1085A000002800D1C4E088480AF0D2FD824B1B6845
:1085B0001800239302F096FF002800D1B4E083480E
:1085C0000AF0C6FD00230025814C239325932493B4
:1085D00022681168EFF3108072B60B68002BFCD094
:1085E000BFF35F8F138951895B1A02D5D18901319D
:1085F0005B181268BFF35F8F156080F31088002B43
:1086000009D030A9206807F0D9F822681168EFF383
:10861000108072B6E1E7614B32A91B68802299464F
:1086200068460AF00DFC309A319B484600F0B0FADB
:10863000386802F007FE336832A9994680226846FE
:108640000AF0FEFB309A319B484603F099FE614BDD
:1086500021995A6A9142BBD89B6A2098834201D2E1
:108660009142B5D05346186802F03CFF00284ED125
:108670005B46186802F036FF002841D14E4B1B685C
:108680001800209302F02EFF002830D13B684246AC
:108690002093542312683068D25A914603F0ECFBC1
:1086A000336830A99A8D049240229B5A4A4601921F
:1086B000239A039302900092259B249A209802F01B
:1086C000EDF906F0F3FB002928DB0023424A1218DB
:1086D0004B4120922193002B04DA01222C4B524271
:1086E000209221934346186803F0B2FA70E7324BA8
:1086F00040211B681800209302F094FE2390C5E7E8
:108700005B464021186802F08DFE2590B6E753467F
:108710004021186802F086FE2490A9E72F4B304ACA
:108720003F21304807F06EFC2F480AF011FD49E761
:108730002E480AF00DFD39E72D480AF009FD2BE718
:108740002C4B012219682C480BF0F2FF1AE75B460C
:10875000186802F049FE0FE7174B186802F044FE54
:10876000F8E65346186802F03FFEE2E6FFF754FDD4
:108770001421200010F03AF910F00AFF50212000D7
:1087800010F034F910F004FFB44F0020A0252600AB
:10879000FFFFFF7F5C500020AC4E00207450002093
:1087A0000040034024500020B03A0020B83A002096
:1087B00034500020670400003C5000206304000097
:1087C0003850002084300210A0300210D430021043
:1087D000785000200040054090D00300083102107E
:1087E0008031021024310210EC300210B830021037
:1087F0006C300210481C0020A01C0020F0B5FA20AC
:10880000CE46012100B5C00007F06EFB374806F0E8
:1088100027F9FFF70FFD364B002600240025994667
:1088200007F05AFB00283BD1002E08D006F03EFB93
:10883000002952DB001BA94100293BDC38D02D4B1D
:10884000186801F0C5FC2C4B1B681968EFF3108009
:1088500072B60A68002AFCD0BFF35F8F19895A8963
:108860008A1A02D5D989013152181968BFF35F8F6E
:1088700000270F6080F31088DB899342D0D1002E4F
:10888000CED106F013FB002929DB00251B4C241850
:108890004D41002D07DB012607F01EFB0028C3D049
:1088A00007F010FBC0E70124154D64420126F3E7F1
:1088B0000028C4D00AF0C0FF48460AF0CFFF06F0F7
